{
  "contractName": "HiWorld",
  "abi": [
    {
      "inputs": [],
      "name": "owner",
      "outputs": [
        {
          "internalType": "address",
          "name": "",
          "type": "address"
        }
      ],
      "stateMutability": "view",
      "type": "function"
    },
    {
      "inputs": [],
      "name": "getHiii",
      "outputs": [
        {
          "internalType": "string",
          "name": "",
          "type": "string"
        }
      ],
      "stateMutability": "view",
      "type": "function"
    }
  ],
  "bytecode": "0x6080604052336000806101000a81548173ffffffffffffffffffffffffffffffffffffffff021916908373ffffffffffffffffffffffffffffffffffffffff1602179055506040518060400160405280600c81526020017f486920737472696a6465722100000000000000000000000000000000000000008152506001908051906020019061008f9291906100a2565b5034801561009c57600080fd5b506101a6565b8280546100ae90610174565b90600052602060002090601f0160209004810192826100d05760008555610117565b82601f106100e957805160ff1916838001178555610117565b82800160010185558215610117579182015b828111156101165782518255916020019190600101906100fb565b5b5090506101249190610128565b5090565b5b80821115610141576000816000905550600101610129565b5090565b7f4e487b7100000000000000000000000000000000000000000000000000000000600052602260045260246000fd5b6000600282049050600182168061018c57607f821691505b602082108114156101a05761019f610145565b5b50919050565b6102db806101b56000396000f3fe608060405234801561001057600080fd5b50600436106100365760003560e01c80631622747f1461003b5780638da5cb5b14610059575b600080fd5b610043610077565b60405161005091906101c6565b60405180910390f35b610061610109565b60405161006e9190610229565b60405180910390f35b60606001805461008690610273565b80601f01602080910402602001604051908101604052809291908181526020018280546100b290610273565b80156100ff5780601f106100d4576101008083540402835291602001916100ff565b820191906000526020600020905b8154815290600101906020018083116100e257829003601f168201915b5050505050905090565b60008054906101000a900473ffffffffffffffffffffffffffffffffffffffff1681565b600081519050919050565b600082825260208201905092915050565b60005b8381101561016757808201518184015260208101905061014c565b83811115610176576000848401525b50505050565b6000601f19601f8301169050919050565b60006101988261012d565b6101a28185610138565b93506101b2818560208601610149565b6101bb8161017c565b840191505092915050565b600060208201905081810360008301526101e0818461018d565b905092915050565b600073ffffffffffffffffffffffffffffffffffffffff82169050919050565b6000610213826101e8565b9050919050565b61022381610208565b82525050565b600060208201905061023e600083018461021a565b92915050565b7f4e487b7100000000000000000000000000000000000000000000000000000000600052602260045260246000fd5b6000600282049050600182168061028b57607f821691505b6020821081141561029f5761029e610244565b5b5091905056fea2646970667358221220a9b187865dae848f3ab3e0f6d6b3c6b1e3e1ab67e67357e252bf32ec217ac15464736f6c634300080a0033",
  "immutableReferences": {},
  "source": "// SPDX-License-Identifier: MIT\r\npragma solidity >=0.4.22 <0.9.0;\r\n\r\ncontract HiWorld {\r\n\r\n    address public owner = msg.sender;\r\n\r\n\r\n    function checkOwner() private view returns (bool) {\r\n        require(msg.sender == owner);\r\n        // revert();\r\n        assert(msg.sender == owner);\r\n        return true;\r\n    }\r\n\r\n    \r\n\r\n    string private hiii = \"Hi strijder!\";\r\n\r\n    function getHiii() public view returns (string memory) {\r\n        return hiii;\r\n    }\r\n}",
  "sourcePath": "C:\\Users\\eldas\\workspace\\firstTruffle\\getHiii\\contracts\\HiWorld.sol",
  "compiler": {
    "name": "solc",
    "version": "0.8.10+commit.fc410830.Emscripten.clang"
  },
  "schemaVersion": "3.4.3",
  "updatedAt": "2021-12-31T00:06:15.589Z",
  "devdoc": {
    "kind": "dev",
    "methods": {},
    "version": 1
  },
  "userdoc": {
    "kind": "user",
    "methods": {},
    "version": 1
  }
}